{
  "_format": "hh-sol-artifact-1",
  "contractName": "GraphBasedEmailSystem",
  "sourceName": "contracts/GraphBasedEmailSystem.sol",
  "abi": [
    {
      "anonymous": false,
      "inputs": [
        {
          "indexed": true,
          "internalType": "address",
          "name": "_fromAddress",
          "type": "address"
        },
        {
          "indexed": true,
          "internalType": "address",
          "name": "_toAddress",
          "type": "address"
        },
        {
          "indexed": false,
          "internalType": "string",
          "name": "_ipfsLink",
          "type": "string"
        },
        {
          "indexed": false,
          "internalType": "string",
          "name": "isEncrypted",
          "type": "string"
        },
        {
          "indexed": false,
          "internalType": "uint256",
          "name": "time",
          "type": "uint256"
        }
      ],
      "name": "NewMessage",
      "type": "event"
    },
    {
      "anonymous": false,
      "inputs": [
        {
          "indexed": true,
          "internalType": "address",
          "name": "_toAddress",
          "type": "address"
        },
        {
          "indexed": false,
          "internalType": "string",
          "name": "_publicKey",
          "type": "string"
        },
        {
          "indexed": false,
          "internalType": "uint256",
          "name": "time",
          "type": "uint256"
        }
      ],
      "name": "newRegistration",
      "type": "event"
    },
    {
      "inputs": [
        {
          "internalType": "address",
          "name": "_receiver",
          "type": "address"
        }
      ],
      "name": "GetReceiverPublicKey",
      "outputs": [
        {
          "internalType": "string",
          "name": "",
          "type": "string"
        }
      ],
      "stateMutability": "view",
      "type": "function"
    },
    {
      "inputs": [],
      "name": "GetSenderPublicKey",
      "outputs": [
        {
          "internalType": "string",
          "name": "",
          "type": "string"
        }
      ],
      "stateMutability": "view",
      "type": "function"
    },
    {
      "inputs": [
        {
          "internalType": "string",
          "name": "_publicKey",
          "type": "string"
        }
      ],
      "name": "Register",
      "outputs": [],
      "stateMutability": "nonpayable",
      "type": "function"
    },
    {
      "inputs": [
        {
          "internalType": "address",
          "name": "_toAddress",
          "type": "address"
        },
        {
          "internalType": "string",
          "name": "_ipfsLink",
          "type": "string"
        },
        {
          "internalType": "string",
          "name": "_isEncrypted",
          "type": "string"
        }
      ],
      "name": "SendMessage",
      "outputs": [],
      "stateMutability": "nonpayable",
      "type": "function"
    }
  ],
  "bytecode": "0x608060405234801561001057600080fd5b50610863806100206000396000f3fe608060405234801561001057600080fd5b506004361061004c5760003560e01c806340b2d3af146100515780636b1afbfb1461006d578063cea14c261461008b578063ebe8f09f146100a7575b600080fd5b61006b6004803603810190610066919061055a565b6100d7565b005b610075610180565b60405161008291906105e3565b60405180910390f35b6100a560048036038101906100a091906104db565b610251565b005b6100c160048036038101906100bc91906104b2565b6102bf565b6040516100ce91906105e3565b60405180910390f35b806000803373ffffffffffffffffffffffffffffffffffffffff1673ffffffffffffffffffffffffffffffffffffffff168152602001908152602001600020600001908051906020019061012c929190610392565b503373ffffffffffffffffffffffffffffffffffffffff167f90833f95b531a060cda4abbf1e74ba57f16e6e62afe528ab66cc9169d998995f824260405161017592919061064a565b60405180910390a250565b60606000803373ffffffffffffffffffffffffffffffffffffffff1673ffffffffffffffffffffffffffffffffffffffff16815260200190815260200160002060000180546101ce90610775565b80601f01602080910402602001604051908101604052809291908181526020018280546101fa90610775565b80156102475780601f1061021c57610100808354040283529160200191610247565b820191906000526020600020905b81548152906001019060200180831161022a57829003601f168201915b5050505050905090565b8273ffffffffffffffffffffffffffffffffffffffff163373ffffffffffffffffffffffffffffffffffffffff167fccf4330c535d5b3a35bbcb82d634cb9e8beefee5bb5b6684f934327451c9ae508484426040516102b293929190610605565b60405180910390a3505050565b60606000808373ffffffffffffffffffffffffffffffffffffffff1673ffffffffffffffffffffffffffffffffffffffff168152602001908152602001600020600001805461030d90610775565b80601f016020809104026020016040519081016040528092919081815260200182805461033990610775565b80156103865780601f1061035b57610100808354040283529160200191610386565b820191906000526020600020905b81548152906001019060200180831161036957829003601f168201915b50505050509050919050565b82805461039e90610775565b90600052602060002090601f0160209004810192826103c05760008555610407565b82601f106103d957805160ff1916838001178555610407565b82800160010185558215610407579182015b828111156104065782518255916020019190600101906103eb565b5b5090506104149190610418565b5090565b5b80821115610431576000816000905550600101610419565b5090565b6000610448610443846106ab565b61067a565b90508281526020810184848401111561046057600080fd5b61046b848285610733565b509392505050565b60008135905061048281610816565b92915050565b600082601f83011261049957600080fd5b81356104a9848260208601610435565b91505092915050565b6000602082840312156104c457600080fd5b60006104d284828501610473565b91505092915050565b6000806000606084860312156104f057600080fd5b60006104fe86828701610473565b935050602084013567ffffffffffffffff81111561051b57600080fd5b61052786828701610488565b925050604084013567ffffffffffffffff81111561054457600080fd5b61055086828701610488565b9150509250925092565b60006020828403121561056c57600080fd5b600082013567ffffffffffffffff81111561058657600080fd5b61059284828501610488565b91505092915050565b60006105a6826106db565b6105b081856106e6565b93506105c0818560208601610742565b6105c981610805565b840191505092915050565b6105dd81610729565b82525050565b600060208201905081810360008301526105fd818461059b565b905092915050565b6000606082019050818103600083015261061f818661059b565b90508181036020830152610633818561059b565b905061064260408301846105d4565b949350505050565b60006040820190508181036000830152610664818561059b565b905061067360208301846105d4565b9392505050565b6000604051905081810181811067ffffffffffffffff821117156106a1576106a06107d6565b5b8060405250919050565b600067ffffffffffffffff8211156106c6576106c56107d6565b5b601f19601f8301169050602081019050919050565b600081519050919050565b600082825260208201905092915050565b600061070282610709565b9050919050565b600073ffffffffffffffffffffffffffffffffffffffff82169050919050565b6000819050919050565b82818337600083830152505050565b60005b83811015610760578082015181840152602081019050610745565b8381111561076f576000848401525b50505050565b6000600282049050600182168061078d57607f821691505b602082108114156107a1576107a06107a7565b5b50919050565b7f4e487b7100000000000000000000000000000000000000000000000000000000600052602260045260246000fd5b7f4e487b7100000000000000000000000000000000000000000000000000000000600052604160045260246000fd5b6000601f19601f8301169050919050565b61081f816106f7565b811461082a57600080fd5b5056fea264697066735822122069392f4b60628f07856d17286bbfa777dd026af9f18ecba36cc3bcaf0e7f181964736f6c63430008000033",
  "linkReferences": {},
  "deployedLinkReferences": {}
}