{
  "_format": "hh-sol-artifact-1",
  "contractName": "GraphBasedEmailSystem",
  "sourceName": "contracts/GraphBasedEmailSystem.sol",
  "abi": [
    {
      "anonymous": false,
      "inputs": [
        {
          "indexed": true,
          "internalType": "address",
          "name": "_fromAddress",
          "type": "address"
        },
        {
          "indexed": true,
          "internalType": "address",
          "name": "_toAddress",
          "type": "address"
        },
        {
          "indexed": false,
          "internalType": "string",
          "name": "_ipfsLink",
          "type": "string"
        },
        {
          "indexed": false,
          "internalType": "uint256",
          "name": "time",
          "type": "uint256"
        }
      ],
      "name": "NewMessage",
      "type": "event"
    },
    {
      "anonymous": false,
      "inputs": [
        {
          "indexed": true,
          "internalType": "address",
          "name": "_toAddress",
          "type": "address"
        },
        {
          "indexed": false,
          "internalType": "string",
          "name": "_publicKey",
          "type": "string"
        },
        {
          "indexed": false,
          "internalType": "uint256",
          "name": "time",
          "type": "uint256"
        }
      ],
      "name": "newRegistration",
      "type": "event"
    },
    {
      "inputs": [
        {
          "internalType": "address",
          "name": "_receiver",
          "type": "address"
        }
      ],
      "name": "GetReceiverPublicKey",
      "outputs": [
        {
          "internalType": "string",
          "name": "",
          "type": "string"
        }
      ],
      "stateMutability": "view",
      "type": "function"
    },
    {
      "inputs": [],
      "name": "GetSenderPublicKey",
      "outputs": [
        {
          "internalType": "string",
          "name": "",
          "type": "string"
        }
      ],
      "stateMutability": "view",
      "type": "function"
    },
    {
      "inputs": [
        {
          "internalType": "string",
          "name": "_publicKey",
          "type": "string"
        }
      ],
      "name": "Register",
      "outputs": [],
      "stateMutability": "nonpayable",
      "type": "function"
    },
    {
      "inputs": [
        {
          "internalType": "address",
          "name": "_toAddress",
          "type": "address"
        },
        {
          "internalType": "string",
          "name": "_ipfsLink",
          "type": "string"
        }
      ],
      "name": "SendMessage",
      "outputs": [],
      "stateMutability": "nonpayable",
      "type": "function"
    }
  ],
  "bytecode": "0x608060405234801561001057600080fd5b506107f0806100206000396000f3fe608060405234801561001057600080fd5b506004361061004c5760003560e01c806340b2d3af146100515780636b1afbfb1461006d578063d088db401461008b578063ebe8f09f146100a7575b600080fd5b61006b6004803603810190610066919061052c565b6100d7565b005b610075610180565b60405161008291906105b5565b60405180910390f35b6100a560048036038101906100a091906104d8565b610251565b005b6100c160048036038101906100bc91906104af565b6102bc565b6040516100ce91906105b5565b60405180910390f35b806000803373ffffffffffffffffffffffffffffffffffffffff1673ffffffffffffffffffffffffffffffffffffffff168152602001908152602001600020600001908051906020019061012c92919061038f565b503373ffffffffffffffffffffffffffffffffffffffff167f90833f95b531a060cda4abbf1e74ba57f16e6e62afe528ab66cc9169d998995f82426040516101759291906105d7565b60405180910390a250565b60606000803373ffffffffffffffffffffffffffffffffffffffff1673ffffffffffffffffffffffffffffffffffffffff16815260200190815260200160002060000180546101ce90610702565b80601f01602080910402602001604051908101604052809291908181526020018280546101fa90610702565b80156102475780601f1061021c57610100808354040283529160200191610247565b820191906000526020600020905b81548152906001019060200180831161022a57829003601f168201915b5050505050905090565b8173ffffffffffffffffffffffffffffffffffffffff163373ffffffffffffffffffffffffffffffffffffffff167f820e6d37b56b06482f38c0c5918db7d094c4b90fb974528a28d834407906409983426040516102b09291906105d7565b60405180910390a35050565b60606000808373ffffffffffffffffffffffffffffffffffffffff1673ffffffffffffffffffffffffffffffffffffffff168152602001908152602001600020600001805461030a90610702565b80601f016020809104026020016040519081016040528092919081815260200182805461033690610702565b80156103835780601f1061035857610100808354040283529160200191610383565b820191906000526020600020905b81548152906001019060200180831161036657829003601f168201915b50505050509050919050565b82805461039b90610702565b90600052602060002090601f0160209004810192826103bd5760008555610404565b82601f106103d657805160ff1916838001178555610404565b82800160010185558215610404579182015b828111156104035782518255916020019190600101906103e8565b5b5090506104119190610415565b5090565b5b8082111561042e576000816000905550600101610416565b5090565b600061044561044084610638565b610607565b90508281526020810184848401111561045d57600080fd5b6104688482856106c0565b509392505050565b60008135905061047f816107a3565b92915050565b600082601f83011261049657600080fd5b81356104a6848260208601610432565b91505092915050565b6000602082840312156104c157600080fd5b60006104cf84828501610470565b91505092915050565b600080604083850312156104eb57600080fd5b60006104f985828601610470565b925050602083013567ffffffffffffffff81111561051657600080fd5b61052285828601610485565b9150509250929050565b60006020828403121561053e57600080fd5b600082013567ffffffffffffffff81111561055857600080fd5b61056484828501610485565b91505092915050565b600061057882610668565b6105828185610673565b93506105928185602086016106cf565b61059b81610792565b840191505092915050565b6105af816106b6565b82525050565b600060208201905081810360008301526105cf818461056d565b905092915050565b600060408201905081810360008301526105f1818561056d565b905061060060208301846105a6565b9392505050565b6000604051905081810181811067ffffffffffffffff8211171561062e5761062d610763565b5b8060405250919050565b600067ffffffffffffffff82111561065357610652610763565b5b601f19601f8301169050602081019050919050565b600081519050919050565b600082825260208201905092915050565b600061068f82610696565b9050919050565b600073ffffffffffffffffffffffffffffffffffffffff82169050919050565b6000819050919050565b82818337600083830152505050565b60005b838110156106ed5780820151818401526020810190506106d2565b838111156106fc576000848401525b50505050565b6000600282049050600182168061071a57607f821691505b6020821081141561072e5761072d610734565b5b50919050565b7f4e487b7100000000000000000000000000000000000000000000000000000000600052602260045260246000fd5b7f4e487b7100000000000000000000000000000000000000000000000000000000600052604160045260246000fd5b6000601f19601f8301169050919050565b6107ac81610684565b81146107b757600080fd5b5056fea2646970667358221220aa1b7ec3d6a5a2104468d01e0421ca4d71c7c582e65ecb2b829afa3baa8303f464736f6c63430008000033",
  "linkReferences": {},
  "deployedLinkReferences": {}
}